{
  "_format": "hh-sol-artifact-1",
  "contractName": "FHETalk",
  "sourceName": "contracts/FHETalk.sol",
  "abi": [
    {
      "inputs": [],
      "name": "ZamaProtocolUnsupported",
      "type": "error"
    },
    {
      "anonymous": false,
      "inputs": [
        {
          "indexed": true,
          "internalType": "uint256",
          "name": "groupId",
          "type": "uint256"
        },
        {
          "indexed": true,
          "internalType": "address",
          "name": "admin",
          "type": "address"
        },
        {
          "indexed": false,
          "internalType": "bool",
          "name": "isAdmin",
          "type": "bool"
        }
      ],
      "name": "GroupAdminUpdated",
      "type": "event"
    },
    {
      "anonymous": false,
      "inputs": [
        {
          "indexed": true,
          "internalType": "uint256",
          "name": "groupId",
          "type": "uint256"
        },
        {
          "indexed": true,
          "internalType": "address",
          "name": "owner",
          "type": "address"
        },
        {
          "indexed": false,
          "internalType": "string",
          "name": "name",
          "type": "string"
        },
        {
          "indexed": false,
          "internalType": "bool",
          "name": "isClosed",
          "type": "bool"
        }
      ],
      "name": "GroupCreated",
      "type": "event"
    },
    {
      "anonymous": false,
      "inputs": [
        {
          "indexed": true,
          "internalType": "uint256",
          "name": "groupId",
          "type": "uint256"
        },
        {
          "indexed": false,
          "internalType": "bytes32",
          "name": "joinCodeHash",
          "type": "bytes32"
        }
      ],
      "name": "GroupJoinCodeUpdated",
      "type": "event"
    },
    {
      "anonymous": false,
      "inputs": [
        {
          "indexed": true,
          "internalType": "uint256",
          "name": "groupId",
          "type": "uint256"
        },
        {
          "indexed": true,
          "internalType": "address",
          "name": "member",
          "type": "address"
        },
        {
          "indexed": true,
          "internalType": "address",
          "name": "addedBy",
          "type": "address"
        }
      ],
      "name": "GroupMemberAdded",
      "type": "event"
    },
    {
      "anonymous": false,
      "inputs": [
        {
          "indexed": true,
          "internalType": "uint256",
          "name": "groupId",
          "type": "uint256"
        },
        {
          "indexed": true,
          "internalType": "address",
          "name": "member",
          "type": "address"
        },
        {
          "indexed": false,
          "internalType": "bool",
          "name": "banned",
          "type": "bool"
        }
      ],
      "name": "GroupMemberBanned",
      "type": "event"
    },
    {
      "anonymous": false,
      "inputs": [
        {
          "indexed": true,
          "internalType": "uint256",
          "name": "groupId",
          "type": "uint256"
        },
        {
          "indexed": true,
          "internalType": "address",
          "name": "member",
          "type": "address"
        }
      ],
      "name": "GroupMemberLeft",
      "type": "event"
    },
    {
      "anonymous": false,
      "inputs": [
        {
          "indexed": true,
          "internalType": "uint256",
          "name": "groupId",
          "type": "uint256"
        },
        {
          "indexed": true,
          "internalType": "address",
          "name": "member",
          "type": "address"
        },
        {
          "indexed": true,
          "internalType": "address",
          "name": "removedBy",
          "type": "address"
        }
      ],
      "name": "GroupMemberRemoved",
      "type": "event"
    },
    {
      "anonymous": false,
      "inputs": [
        {
          "indexed": true,
          "internalType": "uint256",
          "name": "messageId",
          "type": "uint256"
        },
        {
          "indexed": true,
          "internalType": "uint256",
          "name": "groupId",
          "type": "uint256"
        },
        {
          "indexed": true,
          "internalType": "address",
          "name": "from",
          "type": "address"
        },
        {
          "indexed": false,
          "internalType": "uint64",
          "name": "timestamp",
          "type": "uint64"
        },
        {
          "indexed": false,
          "internalType": "uint16",
          "name": "chunkCount",
          "type": "uint16"
        },
        {
          "indexed": false,
          "internalType": "enum FHETalk.AttachmentType",
          "name": "attachmentType",
          "type": "uint8"
        },
        {
          "indexed": false,
          "internalType": "string",
          "name": "attachmentCid",
          "type": "string"
        }
      ],
      "name": "GroupMessageSent",
      "type": "event"
    },
    {
      "anonymous": false,
      "inputs": [
        {
          "indexed": true,
          "internalType": "uint256",
          "name": "messageId",
          "type": "uint256"
        },
        {
          "indexed": true,
          "internalType": "address",
          "name": "from",
          "type": "address"
        },
        {
          "indexed": true,
          "internalType": "address",
          "name": "to",
          "type": "address"
        },
        {
          "indexed": false,
          "internalType": "uint64",
          "name": "timestamp",
          "type": "uint64"
        },
        {
          "indexed": false,
          "internalType": "uint16",
          "name": "chunkCount",
          "type": "uint16"
        },
        {
          "indexed": false,
          "internalType": "enum FHETalk.AttachmentType",
          "name": "attachmentType",
          "type": "uint8"
        },
        {
          "indexed": false,
          "internalType": "string",
          "name": "attachmentCid",
          "type": "string"
        }
      ],
      "name": "MessageSent",
      "type": "event"
    },
    {
      "anonymous": false,
      "inputs": [
        {
          "indexed": true,
          "internalType": "address",
          "name": "user",
          "type": "address"
        },
        {
          "indexed": false,
          "internalType": "string",
          "name": "displayName",
          "type": "string"
        },
        {
          "indexed": false,
          "internalType": "string",
          "name": "avatarCid",
          "type": "string"
        },
        {
          "indexed": false,
          "internalType": "uint64",
          "name": "timestamp",
          "type": "uint64"
        }
      ],
      "name": "ProfileUpdated",
      "type": "event"
    },
    {
      "anonymous": false,
      "inputs": [
        {
          "indexed": true,
          "internalType": "address",
          "name": "user",
          "type": "address"
        },
        {
          "indexed": true,
          "internalType": "address",
          "name": "target",
          "type": "address"
        },
        {
          "indexed": false,
          "internalType": "bool",
          "name": "blocked",
          "type": "bool"
        }
      ],
      "name": "UserBlockStatusChanged",
      "type": "event"
    },
    {
      "inputs": [],
      "name": "MAX_CHUNKS",
      "outputs": [
        {
          "internalType": "uint16",
          "name": "",
          "type": "uint16"
        }
      ],
      "stateMutability": "view",
      "type": "function"
    },
    {
      "inputs": [],
      "name": "MAX_GROUP_MEMBERS",
      "outputs": [
        {
          "internalType": "uint16",
          "name": "",
          "type": "uint16"
        }
      ],
      "stateMutability": "view",
      "type": "function"
    },
    {
      "inputs": [
        {
          "internalType": "uint256",
          "name": "groupId",
          "type": "uint256"
        },
        {
          "internalType": "address[]",
          "name": "members",
          "type": "address[]"
        }
      ],
      "name": "addMembers",
      "outputs": [],
      "stateMutability": "nonpayable",
      "type": "function"
    },
    {
      "inputs": [
        {
          "internalType": "uint256",
          "name": "groupId",
          "type": "uint256"
        },
        {
          "internalType": "address",
          "name": "member",
          "type": "address"
        },
        {
          "internalType": "bool",
          "name": "banned",
          "type": "bool"
        }
      ],
      "name": "banMember",
      "outputs": [],
      "stateMutability": "nonpayable",
      "type": "function"
    },
    {
      "inputs": [],
      "name": "confidentialProtocolId",
      "outputs": [
        {
          "internalType": "uint256",
          "name": "",
          "type": "uint256"
        }
      ],
      "stateMutability": "view",
      "type": "function"
    },
    {
      "inputs": [
        {
          "internalType": "string",
          "name": "name",
          "type": "string"
        },
        {
          "internalType": "string",
          "name": "metadataURI",
          "type": "string"
        },
        {
          "internalType": "bool",
          "name": "isClosed",
          "type": "bool"
        },
        {
          "internalType": "bytes32",
          "name": "joinCodeHash",
          "type": "bytes32"
        }
      ],
      "name": "createGroup",
      "outputs": [
        {
          "internalType": "uint256",
          "name": "groupId",
          "type": "uint256"
        }
      ],
      "stateMutability": "nonpayable",
      "type": "function"
    },
    {
      "inputs": [
        {
          "internalType": "address",
          "name": "user1",
          "type": "address"
        },
        {
          "internalType": "address",
          "name": "user2",
          "type": "address"
        }
      ],
      "name": "getConversation",
      "outputs": [
        {
          "internalType": "uint256[]",
          "name": "",
          "type": "uint256[]"
        }
      ],
      "stateMutability": "view",
      "type": "function"
    },
    {
      "inputs": [
        {
          "internalType": "uint256",
          "name": "groupId",
          "type": "uint256"
        }
      ],
      "name": "getGroup",
      "outputs": [
        {
          "components": [
            {
              "internalType": "uint256",
              "name": "groupId",
              "type": "uint256"
            },
            {
              "internalType": "string",
              "name": "name",
              "type": "string"
            },
            {
              "internalType": "string",
              "name": "metadataURI",
              "type": "string"
            },
            {
              "internalType": "address",
              "name": "owner",
              "type": "address"
            },
            {
              "internalType": "uint64",
              "name": "createdAt",
              "type": "uint64"
            },
            {
              "internalType": "bool",
              "name": "isClosed",
              "type": "bool"
            },
            {
              "internalType": "bool",
              "name": "exists",
              "type": "bool"
            }
          ],
          "internalType": "struct FHETalk.Group",
          "name": "",
          "type": "tuple"
        }
      ],
      "stateMutability": "view",
      "type": "function"
    },
    {
      "inputs": [
        {
          "internalType": "uint256",
          "name": "groupId",
          "type": "uint256"
        }
      ],
      "name": "getGroupMembers",
      "outputs": [
        {
          "internalType": "address[]",
          "name": "",
          "type": "address[]"
        }
      ],
      "stateMutability": "view",
      "type": "function"
    },
    {
      "inputs": [
        {
          "internalType": "uint256",
          "name": "messageId",
          "type": "uint256"
        }
      ],
      "name": "getGroupMessageAttachment",
      "outputs": [
        {
          "components": [
            {
              "internalType": "enum FHETalk.AttachmentType",
              "name": "attachmentType",
              "type": "uint8"
            },
            {
              "internalType": "string",
              "name": "ipfsCid",
              "type": "string"
            }
          ],
          "internalType": "struct FHETalk.Attachment",
          "name": "",
          "type": "tuple"
        }
      ],
      "stateMutability": "view",
      "type": "function"
    },
    {
      "inputs": [
        {
          "internalType": "uint256",
          "name": "messageId",
          "type": "uint256"
        },
        {
          "internalType": "uint16",
          "name": "index",
          "type": "uint16"
        }
      ],
      "name": "getGroupMessageChunk",
      "outputs": [
        {
          "internalType": "euint64",
          "name": "",
          "type": "bytes32"
        }
      ],
      "stateMutability": "view",
      "type": "function"
    },
    {
      "inputs": [
        {
          "internalType": "uint256",
          "name": "groupId",
          "type": "uint256"
        }
      ],
      "name": "getGroupMessageCount",
      "outputs": [
        {
          "internalType": "uint256",
          "name": "",
          "type": "uint256"
        }
      ],
      "stateMutability": "view",
      "type": "function"
    },
    {
      "inputs": [
        {
          "internalType": "uint256",
          "name": "messageId",
          "type": "uint256"
        }
      ],
      "name": "getGroupMessageHeader",
      "outputs": [
        {
          "components": [
            {
              "internalType": "uint256",
              "name": "groupId",
              "type": "uint256"
            },
            {
              "internalType": "address",
              "name": "from",
              "type": "address"
            },
            {
              "internalType": "uint64",
              "name": "timestamp",
              "type": "uint64"
            },
            {
              "internalType": "uint16",
              "name": "chunkCount",
              "type": "uint16"
            },
            {
              "internalType": "enum FHETalk.AttachmentType",
              "name": "attachmentType",
              "type": "uint8"
            }
          ],
          "internalType": "struct FHETalk.GroupMessageHeader",
          "name": "",
          "type": "tuple"
        }
      ],
      "stateMutability": "view",
      "type": "function"
    },
    {
      "inputs": [
        {
          "internalType": "uint256",
          "name": "groupId",
          "type": "uint256"
        }
      ],
      "name": "getGroupMessageIds",
      "outputs": [
        {
          "internalType": "uint256[]",
          "name": "",
          "type": "uint256[]"
        }
      ],
      "stateMutability": "view",
      "type": "function"
    },
    {
      "inputs": [
        {
          "internalType": "uint256",
          "name": "messageId",
          "type": "uint256"
        }
      ],
      "name": "getGroupMessageMediaKey",
      "outputs": [
        {
          "internalType": "euint128",
          "name": "",
          "type": "bytes32"
        }
      ],
      "stateMutability": "view",
      "type": "function"
    },
    {
      "inputs": [
        {
          "internalType": "address",
          "name": "user",
          "type": "address"
        }
      ],
      "name": "getInboxCount",
      "outputs": [
        {
          "internalType": "uint256",
          "name": "",
          "type": "uint256"
        }
      ],
      "stateMutability": "view",
      "type": "function"
    },
    {
      "inputs": [
        {
          "internalType": "address",
          "name": "user",
          "type": "address"
        }
      ],
      "name": "getInboxIds",
      "outputs": [
        {
          "internalType": "uint256[]",
          "name": "",
          "type": "uint256[]"
        }
      ],
      "stateMutability": "view",
      "type": "function"
    },
    {
      "inputs": [
        {
          "internalType": "address",
          "name": "user",
          "type": "address"
        },
        {
          "internalType": "uint256",
          "name": "offset",
          "type": "uint256"
        },
        {
          "internalType": "uint256",
          "name": "limit",
          "type": "uint256"
        }
      ],
      "name": "getInboxIdsPaginated",
      "outputs": [
        {
          "internalType": "uint256[]",
          "name": "",
          "type": "uint256[]"
        }
      ],
      "stateMutability": "view",
      "type": "function"
    },
    {
      "inputs": [
        {
          "internalType": "uint256",
          "name": "messageId",
          "type": "uint256"
        }
      ],
      "name": "getMessageAttachment",
      "outputs": [
        {
          "components": [
            {
              "internalType": "enum FHETalk.AttachmentType",
              "name": "attachmentType",
              "type": "uint8"
            },
            {
              "internalType": "string",
              "name": "ipfsCid",
              "type": "string"
            }
          ],
          "internalType": "struct FHETalk.Attachment",
          "name": "",
          "type": "tuple"
        }
      ],
      "stateMutability": "view",
      "type": "function"
    },
    {
      "inputs": [
        {
          "internalType": "uint256",
          "name": "messageId",
          "type": "uint256"
        },
        {
          "internalType": "uint16",
          "name": "index",
          "type": "uint16"
        }
      ],
      "name": "getMessageChunk",
      "outputs": [
        {
          "internalType": "euint64",
          "name": "",
          "type": "bytes32"
        }
      ],
      "stateMutability": "view",
      "type": "function"
    },
    {
      "inputs": [
        {
          "internalType": "uint256",
          "name": "messageId",
          "type": "uint256"
        }
      ],
      "name": "getMessageHeader",
      "outputs": [
        {
          "components": [
            {
              "internalType": "address",
              "name": "from",
              "type": "address"
            },
            {
              "internalType": "address",
              "name": "to",
              "type": "address"
            },
            {
              "internalType": "uint64",
              "name": "timestamp",
              "type": "uint64"
            },
            {
              "internalType": "uint16",
              "name": "chunkCount",
              "type": "uint16"
            },
            {
              "internalType": "enum FHETalk.AttachmentType",
              "name": "attachmentType",
              "type": "uint8"
            }
          ],
          "internalType": "struct FHETalk.MessageHeader",
          "name": "",
          "type": "tuple"
        }
      ],
      "stateMutability": "view",
      "type": "function"
    },
    {
      "inputs": [
        {
          "internalType": "uint256",
          "name": "messageId",
          "type": "uint256"
        }
      ],
      "name": "getMessageMediaKey",
      "outputs": [
        {
          "internalType": "euint128",
          "name": "",
          "type": "bytes32"
        }
      ],
      "stateMutability": "view",
      "type": "function"
    },
    {
      "inputs": [
        {
          "internalType": "address",
          "name": "user",
          "type": "address"
        }
      ],
      "name": "getOutboxCount",
      "outputs": [
        {
          "internalType": "uint256",
          "name": "",
          "type": "uint256"
        }
      ],
      "stateMutability": "view",
      "type": "function"
    },
    {
      "inputs": [
        {
          "internalType": "address",
          "name": "user",
          "type": "address"
        }
      ],
      "name": "getOutboxIds",
      "outputs": [
        {
          "internalType": "uint256[]",
          "name": "",
          "type": "uint256[]"
        }
      ],
      "stateMutability": "view",
      "type": "function"
    },
    {
      "inputs": [
        {
          "internalType": "address",
          "name": "user",
          "type": "address"
        },
        {
          "internalType": "uint256",
          "name": "offset",
          "type": "uint256"
        },
        {
          "internalType": "uint256",
          "name": "limit",
          "type": "uint256"
        }
      ],
      "name": "getOutboxIdsPaginated",
      "outputs": [
        {
          "internalType": "uint256[]",
          "name": "",
          "type": "uint256[]"
        }
      ],
      "stateMutability": "view",
      "type": "function"
    },
    {
      "inputs": [
        {
          "internalType": "address",
          "name": "user",
          "type": "address"
        }
      ],
      "name": "getProfile",
      "outputs": [
        {
          "components": [
            {
              "internalType": "string",
              "name": "displayName",
              "type": "string"
            },
            {
              "internalType": "string",
              "name": "avatarCid",
              "type": "string"
            },
            {
              "internalType": "uint64",
              "name": "updatedAt",
              "type": "uint64"
            },
            {
              "internalType": "bool",
              "name": "exists",
              "type": "bool"
            }
          ],
          "internalType": "struct FHETalk.UserProfile",
          "name": "",
          "type": "tuple"
        }
      ],
      "stateMutability": "view",
      "type": "function"
    },
    {
      "inputs": [
        {
          "internalType": "uint256",
          "name": "",
          "type": "uint256"
        }
      ],
      "name": "groupJoinCodeHash",
      "outputs": [
        {
          "internalType": "bytes32",
          "name": "",
          "type": "bytes32"
        }
      ],
      "stateMutability": "view",
      "type": "function"
    },
    {
      "inputs": [
        {
          "internalType": "uint256",
          "name": "",
          "type": "uint256"
        }
      ],
      "name": "groupMessageAttachments",
      "outputs": [
        {
          "internalType": "enum FHETalk.AttachmentType",
          "name": "attachmentType",
          "type": "uint8"
        },
        {
          "internalType": "string",
          "name": "ipfsCid",
          "type": "string"
        }
      ],
      "stateMutability": "view",
      "type": "function"
    },
    {
      "inputs": [
        {
          "internalType": "uint256",
          "name": "",
          "type": "uint256"
        }
      ],
      "name": "groupMessageHeaders",
      "outputs": [
        {
          "internalType": "uint256",
          "name": "groupId",
          "type": "uint256"
        },
        {
          "internalType": "address",
          "name": "from",
          "type": "address"
        },
        {
          "internalType": "uint64",
          "name": "timestamp",
          "type": "uint64"
        },
        {
          "internalType": "uint16",
          "name": "chunkCount",
          "type": "uint16"
        },
        {
          "internalType": "enum FHETalk.AttachmentType",
          "name": "attachmentType",
          "type": "uint8"
        }
      ],
      "stateMutability": "view",
      "type": "function"
    },
    {
      "inputs": [
        {
          "internalType": "uint256",
          "name": "",
          "type": "uint256"
        }
      ],
      "name": "groups",
      "outputs": [
        {
          "internalType": "uint256",
          "name": "groupId",
          "type": "uint256"
        },
        {
          "internalType": "string",
          "name": "name",
          "type": "string"
        },
        {
          "internalType": "string",
          "name": "metadataURI",
          "type": "string"
        },
        {
          "internalType": "address",
          "name": "owner",
          "type": "address"
        },
        {
          "internalType": "uint64",
          "name": "createdAt",
          "type": "uint64"
        },
        {
          "internalType": "bool",
          "name": "isClosed",
          "type": "bool"
        },
        {
          "internalType": "bool",
          "name": "exists",
          "type": "bool"
        }
      ],
      "stateMutability": "view",
      "type": "function"
    },
    {
      "inputs": [
        {
          "internalType": "address",
          "name": "",
          "type": "address"
        },
        {
          "internalType": "address",
          "name": "",
          "type": "address"
        }
      ],
      "name": "isBlocked",
      "outputs": [
        {
          "internalType": "bool",
          "name": "",
          "type": "bool"
        }
      ],
      "stateMutability": "view",
      "type": "function"
    },
    {
      "inputs": [
        {
          "internalType": "uint256",
          "name": "",
          "type": "uint256"
        },
        {
          "internalType": "address",
          "name": "",
          "type": "address"
        }
      ],
      "name": "isGroupAdmin",
      "outputs": [
        {
          "internalType": "bool",
          "name": "",
          "type": "bool"
        }
      ],
      "stateMutability": "view",
      "type": "function"
    },
    {
      "inputs": [
        {
          "internalType": "uint256",
          "name": "",
          "type": "uint256"
        },
        {
          "internalType": "address",
          "name": "",
          "type": "address"
        }
      ],
      "name": "isGroupBanned",
      "outputs": [
        {
          "internalType": "bool",
          "name": "",
          "type": "bool"
        }
      ],
      "stateMutability": "view",
      "type": "function"
    },
    {
      "inputs": [
        {
          "internalType": "uint256",
          "name": "",
          "type": "uint256"
        },
        {
          "internalType": "address",
          "name": "",
          "type": "address"
        }
      ],
      "name": "isGroupMember",
      "outputs": [
        {
          "internalType": "bool",
          "name": "",
          "type": "bool"
        }
      ],
      "stateMutability": "view",
      "type": "function"
    },
    {
      "inputs": [
        {
          "internalType": "uint256",
          "name": "groupId",
          "type": "uint256"
        },
        {
          "internalType": "string",
          "name": "roomCode",
          "type": "string"
        }
      ],
      "name": "joinGroupWithCode",
      "outputs": [],
      "stateMutability": "nonpayable",
      "type": "function"
    },
    {
      "inputs": [
        {
          "internalType": "uint256",
          "name": "groupId",
          "type": "uint256"
        },
        {
          "internalType": "address",
          "name": "member",
          "type": "address"
        }
      ],
      "name": "kickMember",
      "outputs": [],
      "stateMutability": "nonpayable",
      "type": "function"
    },
    {
      "inputs": [
        {
          "internalType": "uint256",
          "name": "groupId",
          "type": "uint256"
        }
      ],
      "name": "leaveGroup",
      "outputs": [],
      "stateMutability": "nonpayable",
      "type": "function"
    },
    {
      "inputs": [
        {
          "internalType": "uint256",
          "name": "",
          "type": "uint256"
        }
      ],
      "name": "messageAttachments",
      "outputs": [
        {
          "internalType": "enum FHETalk.AttachmentType",
          "name": "attachmentType",
          "type": "uint8"
        },
        {
          "internalType": "string",
          "name": "ipfsCid",
          "type": "string"
        }
      ],
      "stateMutability": "view",
      "type": "function"
    },
    {
      "inputs": [
        {
          "internalType": "uint256",
          "name": "",
          "type": "uint256"
        }
      ],
      "name": "messageHeaders",
      "outputs": [
        {
          "internalType": "address",
          "name": "from",
          "type": "address"
        },
        {
          "internalType": "address",
          "name": "to",
          "type": "address"
        },
        {
          "internalType": "uint64",
          "name": "timestamp",
          "type": "uint64"
        },
        {
          "internalType": "uint16",
          "name": "chunkCount",
          "type": "uint16"
        },
        {
          "internalType": "enum FHETalk.AttachmentType",
          "name": "attachmentType",
          "type": "uint8"
        }
      ],
      "stateMutability": "view",
      "type": "function"
    },
    {
      "inputs": [],
      "name": "nextGroupId",
      "outputs": [
        {
          "internalType": "uint256",
          "name": "",
          "type": "uint256"
        }
      ],
      "stateMutability": "view",
      "type": "function"
    },
    {
      "inputs": [],
      "name": "nextGroupMessageId",
      "outputs": [
        {
          "internalType": "uint256",
          "name": "",
          "type": "uint256"
        }
      ],
      "stateMutability": "view",
      "type": "function"
    },
    {
      "inputs": [],
      "name": "nextMessageId",
      "outputs": [
        {
          "internalType": "uint256",
          "name": "",
          "type": "uint256"
        }
      ],
      "stateMutability": "view",
      "type": "function"
    },
    {
      "inputs": [
        {
          "internalType": "uint256",
          "name": "groupId",
          "type": "uint256"
        },
        {
          "internalType": "externalEuint64[]",
          "name": "encChunks",
          "type": "bytes32[]"
        },
        {
          "internalType": "bytes",
          "name": "inputProof",
          "type": "bytes"
        }
      ],
      "name": "sendGroupMessage",
      "outputs": [],
      "stateMutability": "nonpayable",
      "type": "function"
    },
    {
      "inputs": [
        {
          "internalType": "uint256",
          "name": "groupId",
          "type": "uint256"
        },
        {
          "internalType": "externalEuint64[]",
          "name": "encChunks",
          "type": "bytes32[]"
        },
        {
          "internalType": "externalEuint128",
          "name": "encMediaKey",
          "type": "bytes32"
        },
        {
          "internalType": "string",
          "name": "encryptedImageCid",
          "type": "string"
        },
        {
          "internalType": "bytes",
          "name": "inputProof",
          "type": "bytes"
        }
      ],
      "name": "sendGroupMessageWithImage",
      "outputs": [],
      "stateMutability": "nonpayable",
      "type": "function"
    },
    {
      "inputs": [
        {
          "internalType": "address",
          "name": "to",
          "type": "address"
        },
        {
          "internalType": "externalEuint64[]",
          "name": "encChunks",
          "type": "bytes32[]"
        },
        {
          "internalType": "bytes",
          "name": "inputProof",
          "type": "bytes"
        }
      ],
      "name": "sendMessage",
      "outputs": [],
      "stateMutability": "nonpayable",
      "type": "function"
    },
    {
      "inputs": [
        {
          "internalType": "address",
          "name": "to",
          "type": "address"
        },
        {
          "internalType": "externalEuint64[]",
          "name": "encChunks",
          "type": "bytes32[]"
        },
        {
          "internalType": "externalEuint128",
          "name": "encMediaKey",
          "type": "bytes32"
        },
        {
          "internalType": "string",
          "name": "encryptedImageCid",
          "type": "string"
        },
        {
          "internalType": "bytes",
          "name": "inputProof",
          "type": "bytes"
        }
      ],
      "name": "sendMessageWithImage",
      "outputs": [],
      "stateMutability": "nonpayable",
      "type": "function"
    },
    {
      "inputs": [
        {
          "internalType": "address",
          "name": "target",
          "type": "address"
        },
        {
          "internalType": "bool",
          "name": "blocked",
          "type": "bool"
        }
      ],
      "name": "setBlockStatus",
      "outputs": [],
      "stateMutability": "nonpayable",
      "type": "function"
    },
    {
      "inputs": [
        {
          "internalType": "uint256",
          "name": "groupId",
          "type": "uint256"
        },
        {
          "internalType": "address",
          "name": "member",
          "type": "address"
        },
        {
          "internalType": "bool",
          "name": "isAdmin_",
          "type": "bool"
        }
      ],
      "name": "setGroupAdmin",
      "outputs": [],
      "stateMutability": "nonpayable",
      "type": "function"
    },
    {
      "inputs": [
        {
          "internalType": "string",
          "name": "displayName",
          "type": "string"
        },
        {
          "internalType": "string",
          "name": "avatarCid",
          "type": "string"
        }
      ],
      "name": "setProfile",
      "outputs": [],
      "stateMutability": "nonpayable",
      "type": "function"
    },
    {
      "inputs": [
        {
          "internalType": "uint256",
          "name": "groupId",
          "type": "uint256"
        },
        {
          "internalType": "bytes32",
          "name": "newJoinCodeHash",
          "type": "bytes32"
        }
      ],
      "name": "updateGroupJoinCode",
      "outputs": [],
      "stateMutability": "nonpayable",
      "type": "function"
    }
  ],
  "bytecode": "0x608060405234801561000f575f5ffd5b506100c461001b6100c9565b80517f9e7b61f58c47dc699ac88507c4f5bb9f121c03808c5676a8078fe583e464970080546001600160a01b03199081166001600160a01b039384161790915560208301517f9e7b61f58c47dc699ac88507c4f5bb9f121c03808c5676a8078fe583e46497018054831691841691909117905560408301517f9e7b61f58c47dc699ac88507c4f5bb9f121c03808c5676a8078fe583e46497028054909216921691909117905550565b610238565b604080516060810182525f808252602082018190529181019190915246600103610122575060408051606080820183525f8083526020808401829052928401819052835191820184528082529181018290529182015290565b4662aa36a7036101a1575060408051606080820183525f8083526020808401829052928401528251908101835273f0ffdc93b7e186bc2f8cb3daa75d86d1930a433d81527392c920834ec8941d2c77d188936e1f7a6f49c1279181019190915273be0e383937d564d7ff0bc3b46c51f0bf8d5c311a9181019190915290565b46617a690361021f575060408051606080820183525f808352602080840182905292840152825190810183527350157cffd6bbfa2dece204a89ec419c23ef5755d815273e3a9105a3a932253a70f126eb1e3b589c643dd249181019190915273be0e383937d564d7ff0bc3b46c51f0bf8d5c311a9181019190915290565b6040516373cac13b60e01b815260040160405180910390fd5b614f67806102455f395ff3fe608060405234801561000f575f5ffd5b5060043610610325575f3560e01c80637c4b4973116101a8578063ceb60654116100f3578063e5c153c21161009e578063eefbf17e11610079578063eefbf17e14610885578063f7b4c59c1461088d578063f89fcf97146108a0578063ff131c0e146108b3575f5ffd5b8063e5c153c21461084c578063eb8f080b1461085f578063ed80cea114610872575f5ffd5b8063dd89483e116100ce578063dd89483e14610808578063e25b444114610830578063e5a9cedb14610839575f5ffd5b8063ceb60654146107c2578063d0dc74ff146107e2578063d773e71e146107f5575f5ffd5b80639b3b183811610153578063bd0e667c1161012e578063bd0e667c14610762578063bfeb560714610775578063c2da6fd9146107a2575f5ffd5b80639b3b1838146106c75780639b61629b146106da578063ac3acb51146106f9575f5ffd5b806396324bd41161018357806396324bd41461067b57806396a6d535146106a157806398caf4c2146106b4575f5ffd5b80637c4b49731461062557806386c58d3e146106465780638927b03014610673575f5ffd5b8063375eed27116102735780636ab9bb1c1161021e578063762e1824116101f9578063762e1824146105b757806377505ba4146105df57806377e268a7146105f25780637ad2b86f14610612575f5ffd5b80636ab9bb1c1461050a578063719e37ae14610577578063751543e71461058a575f5ffd5b80635ba129c11161024e5780635ba129c1146104d85780635ed25346146104f85780635eda7a7614610501575f5ffd5b8063375eed271461048a5780634ab6ba7c146104aa5780635b3eb598146104bd575f5ffd5b80632a3c1c52116102d357806332e29b90116102ae57806332e29b901461043857806333471df51461045757806336cc81301461046a575f5ffd5b80632a3c1c52146103c957806331a06718146103e857806331b027f714610425575f5ffd5b8063182a676b11610303578063182a676b146103905780631b10ed40146103a35780631f68fd74146103b6575f5ffd5b806305b612f01461032957806306848b5e1461033e5780630f53a47014610370575b5f5ffd5b61033c610337366004614362565b6108c6565b005b61035d61034c36600461439b565b5f9081526014602052604090205490565b6040519081526020015b60405180910390f35b61038361037e3660046143b2565b610a57565b60405161036791906143f9565b61033c61039e36600461445d565b610bed565b61035d6103b13660046144d2565b610d06565b61033c6103c436600461459a565b610fd2565b61035d6103d736600461439b565b5f9081526015602052604090205490565b6104156103f636600461464f565b600e60209081525f928352604080842090915290825290205460ff1681565b6040519015158152602001610367565b61033c610433366004614670565b61159d565b61035d61044636600461439b565b5f9081526004602052604090205490565b61033c61046536600461439b565b611884565b61047d61047836600461439b565b611a36565b60405161036791906146b7565b61049d610498366004614702565b611a9f565b604051610367919061472a565b61033c6104b8366004614761565b611d35565b6104c5604081565b60405161ffff9091168152602001610367565b6104eb6104e636600461439b565b611f70565b60405161036791906147c3565b6104c561010081565b61035d60095481565b61056661051836600461439b565b600160208190525f918252604090912080549101546001600160a01b0391821691811690600160a01b81046001600160401b031690600160e01b810461ffff1690600160f01b900460ff1685565b6040516103679594939291906147f6565b61033c61058536600461483e565b61205f565b61041561059836600461464f565b600d60209081525f928352604080842090915290825290205460ff1681565b61035d6105c53660046143b2565b6001600160a01b03165f9081526005602052604090205490565b61033c6105ed3660046148a8565b6121ab565b61060561060036600461439b565b6122cb565b60405161036791906148c8565b6104eb61062036600461439b565b612390565b61063861063336600461439b565b6123d3565b604051610367929190614929565b610415610654366004614702565b600760209081525f928352604080842090915290825290205460ff1681565b61035d612479565b61068e61068936600461439b565b612487565b6040516103679796959493929190614948565b61033c6106af3660046149ad565b6125eb565b6106386106c236600461439b565b6129bd565b61049d6106d53660046143b2565b6129e2565b61035d6106e836600461439b565b600f6020525f908152604090205481565b61075161070736600461439b565b60116020525f9081526040902080546001909101546001600160a01b03811690600160a01b81046001600160401b031690600160e01b810461ffff1690600160f01b900460ff1685565b604051610367959493929190614a24565b61033c61077036600461464f565b612a4a565b61041561078336600461464f565b600c60209081525f928352604080842090915290825290205460ff1681565b6107b56107b036600461439b565b612c7d565b6040516103679190614a60565b6107d56107d036600461439b565b612d29565b6040516103679190614ab1565b61035d6107f0366004614b44565b612efa565b61049d610803366004614b78565b613074565b61035d6108163660046143b2565b6001600160a01b03165f9081526006602052604090205490565b61035d60105481565b61033c610847366004614ba8565b6131a2565b61049d61085a366004614b78565b6135ce565b61049d61086d36600461439b565b6136bf565b61049d6108803660046143b2565b61371c565b61035d5f5481565b61035d61089b366004614b44565b613783565b61033c6108ae366004614362565b6138f4565b61033c6108c1366004614bdf565b613b2e565b5f838152600a6020526040902060030154600160e81b900460ff166109245760405162461bcd60e51b815260206004820152600f60248201526e11dc9bdd5c081b9bdd08199bdd5b99608a1b60448201526064015b60405180910390fd5b5f838152600a60205260409020600301546001600160a01b0316331461098c5760405162461bcd60e51b815260206004820152600a60248201527f4f6e6c79206f776e657200000000000000000000000000000000000000000000604482015260640161091b565b5f838152600c602090815260408083206001600160a01b038616845290915290205460ff166109ec5760405162461bcd60e51b815260206004820152600c60248201526b2737ba10309036b2b6b132b960a11b604482015260640161091b565b5f838152600d602090815260408083206001600160a01b03861680855290835292819020805460ff1916851515908117909155905190815285917f0a79e6d133c9e1bb9e0e89ca6baa45aa7668b4d4e0896e0303c26a126794971791015b60405180910390a3505050565b604080516080810182526060808252602082018190525f9282018390528101919091526001600160a01b0382165f9081526008602052604090819020815160808101909252805482908290610aab90614c12565b80601f0160208091040260200160405190810160405280929190818152602001828054610ad790614c12565b8015610b225780601f10610af957610100808354040283529160200191610b22565b820191905f5260205f20905b815481529060010190602001808311610b0557829003601f168201915b50505050508152602001600182018054610b3b90614c12565b80601f0160208091040260200160405190810160405280929190818152602001828054610b6790614c12565b8015610bb25780601f10610b8957610100808354040283529160200191610bb2565b820191905f5260205f20905b815481529060010190602001808311610b9557829003601f168201915b5050509183525050600291909101546001600160401b038116602083015268010000000000000000900460ff16151560409091015292915050565b6001600160a01b038216610c435760405162461bcd60e51b815260206004820152600e60248201527f496e76616c696420746172676574000000000000000000000000000000000000604482015260640161091b565b336001600160a01b03831603610c9b5760405162461bcd60e51b815260206004820152601560248201527f43616e6e6f7420626c6f636b20796f757273656c660000000000000000000000604482015260640161091b565b335f8181526007602090815260408083206001600160a01b03871680855290835292819020805460ff191686151590811790915590519081529192917fe4e7282624fa89db83268a50766997812cb09040a5b405db7e87dee249ff9b40910160405180910390a35050565b600980545f9182610d1683614c5e565b9190505590506040518060e0016040528082815260200188888080601f0160208091040260200160405190810160405280939291908181526020018383808284375f92019190915250505090825250604080516020601f8901819004810282018101909252878152918101919088908890819084018382808284375f9201829052509385525050336020808501919091526001600160401b034216604080860191909152881515606086015260016080909501859052868452600a825290922084518155918401519192830191610dee915082614cd6565b5060408201516002820190610e039082614cd6565b50606082015160039091018054608084015160a085015160c0909501511515600160e81b027fffff00ffffffffffffffffffffffffffffffffffffffffffffffffffffffffff951515600160e01b029590951661ffff60e01b196001600160401b03909216600160a01b026001600160e01b03199093166001600160a01b03909516949094179190911716919091179190911790555f818152600b602090815260408083208054600181810183559185528385200180546001600160a01b03191633908117909155858552600c84528285208186528452828520805460ff199081168417909155868652600d855283862091865293529220805490911690911790558115610f1c575f818152600f602052604090208290555b336001600160a01b0316817fbdc8c11cf1101dc45f0c7a81c1f7d62e74320f69b94d05cf5790128c1d13cf05898987604051610f5a93929190614db8565b60405180910390a36040513390819083907fafb3102cb7ef9cffb329d26fb61fb67129018f3939513b47f88d6b31fa1a5191905f90a460405160018152339082907f0a79e6d133c9e1bb9e0e89ca6baa45aa7668b4d4e0896e0303c26a12679497179060200160405180910390a39695505050505050565b6001600160a01b0388166110285760405162461bcd60e51b815260206004820152601160248201527f496e76616c696420726563697069656e74000000000000000000000000000000604482015260640161091b565b336001600160a01b038916036110805760405162461bcd60e51b815260206004820152601760248201527f43616e6e6f742073656e6420746f20796f757273656c66000000000000000000604482015260640161091b565b856110bd5760405162461bcd60e51b815260206004820152600d60248201526c456d707479206d65737361676560981b604482015260640161091b565b6101008611156111025760405162461bcd60e51b815260206004820152601060248201526f4d65737361676520746f6f206c6f6e6760801b604482015260640161091b565b8261114f5760405162461bcd60e51b815260206004820152601260248201527f496d616765204349442072657175697265640000000000000000000000000000604482015260640161091b565b6001600160a01b0388165f90815260076020908152604080832033845290915290205460ff16156111c25760405162461bcd60e51b815260206004820152601c60248201527f596f752061726520626c6f636b656420627920726563697069656e7400000000604482015260640161091b565b335f9081526007602090815260408083206001600160a01b038c16845290915290205460ff16156112355760405162461bcd60e51b815260206004820152601a60248201527f596f7520626c6f636b6564207468697320726563697069656e74000000000000604482015260640161091b565b5f8054818061124383614c5e565b909155506040805160a0810182523381526001600160a01b038c1660208201526001600160401b0342169181019190915261ffff89166060820152909150879060808101600190525f83815260016020818152604092839020845181546001600160a01b039182166001600160a01b031990911617825591850151818401805495870151606088015161ffff16600160e01b0261ffff60e01b196001600160401b03909216600160a01b026001600160e01b031990981693909516929092179590951790811683178555608086015191949193919260ff60f01b191662ffffff60e01b199091161790600160f01b9084908111156113435761134361479b565b02179055505f9150505b8161ffff168161ffff161015611400575f6113b98b8b8461ffff1681811061137757611377614ddd565b9050602002013587878080601f0160208091040260200160405190810160405280939291908181526020018383808284375f9201919091525061402e92505050565b90506113c48161403b565b506113cf813361404a565b506113da818d61404a565b505f84815260026020908152604080832061ffff8616845290915290205560010161134d565b505f6114418886868080601f0160208091040260200160405190810160405280939291908181526020018383808284375f9201919091525061405c92505050565b905061144c8161403b565b50611457813361404a565b50611462818c61404a565b505f83815260046020526040908190208290558051808201909152806001815260200188888080601f0160208091040260200160405190810160405280939291908181526020018383808284375f9201829052509390945250508581526003602052604090208251815491925090829060ff1916600183818111156114e9576114e961479b565b0217905550602082015160018201906115029082614cd6565b5050506001600160a01b038b165f81815260056020908152604080832080546001818101835591855283852001889055338085526006845282852080548084018255908652939094209092018790555186917fd64bcbd2b200a9c6606e97a610fdec02da43482ee57ac4c289dacb0cd63169bb916115889142918991908f908f90614df1565b60405180910390a45050505050505050505050565b5f838152600a6020526040902060030154600160e81b900460ff166115f65760405162461bcd60e51b815260206004820152600f60248201526e11dc9bdd5c081b9bdd08199bdd5b99608a1b604482015260640161091b565b5f838152600a6020526040902060030154600160e01b900460ff161561165e5760405162461bcd60e51b815260206004820152600f60248201527f47726f757020697320636c6f7365640000000000000000000000000000000000604482015260640161091b565b5f838152600c6020908152604080832033845290915290205460ff16156116c75760405162461bcd60e51b815260206004820152601060248201527f416c72656164792061206d656d62657200000000000000000000000000000000604482015260640161091b565b5f838152600e6020908152604080832033845290915290205460ff16156117305760405162461bcd60e51b815260206004820152600e60248201527f596f75206172652062616e6e6564000000000000000000000000000000000000604482015260640161091b565b5f838152600b602052604090819020541061177a5760405162461bcd60e51b815260206004820152600a60248201526911dc9bdd5c08199d5b1b60b21b604482015260640161091b565b5f828260405160200161178e929190614e35565b60408051601f1981840301815291815281516020928301205f878152600f90935291205490915081146118035760405162461bcd60e51b815260206004820152600c60248201527f496e76616c696420636f64650000000000000000000000000000000000000000604482015260640161091b565b5f848152600b602090815260408083208054600181810183559185528385200180546001600160a01b03191633908117909155888552600c8452828520818652909352818420805460ff19169091179055519091829187917fafb3102cb7ef9cffb329d26fb61fb67129018f3939513b47f88d6b31fa1a519191a450505050565b5f818152600a6020526040902060030154600160e81b900460ff166118dd5760405162461bcd60e51b815260206004820152600f60248201526e11dc9bdd5c081b9bdd08199bdd5b99608a1b604482015260640161091b565b5f818152600c6020908152604080832033845290915290205460ff166119345760405162461bcd60e51b815260206004820152600c60248201526b2737ba10309036b2b6b132b960a11b604482015260640161091b565b5f818152600a60205260409020600301546001600160a01b03163314158061196957505f818152600b60205260409020546001145b6119b55760405162461bcd60e51b815260206004820152601f60248201527f4f776e65722063616e6e6f74206c656176652077697468206d656d6265727300604482015260640161091b565b5f818152600c6020908152604080832033808552908352818420805460ff19908116909155858552600d8452828520828652845282852080549091169055848452600b909252909120611a0791614069565b604051339082907f8efc9120a3721553447bf3fcf90d05f22763c57b63c91029788b40b75d2874d2905f90a350565b5f818152600b6020908152604091829020805483518184028101840190945280845260609392830182828015611a9357602002820191905f5260205f20905b81546001600160a01b03168152600190910190602001808311611a75575b50505050509050919050565b6001600160a01b0382165f90815260056020908152604080832060069092528220606092805b8354811015611b2c57856001600160a01b031660015f868481548110611aed57611aed614ddd565b5f91825260208083209091015483528201929092526040019020546001600160a01b031603611b245781611b2081614c5e565b9250505b600101611ac5565b505f5b8254811015611b9957856001600160a01b031660015f858481548110611b5757611b57614ddd565b5f91825260208083209091015483528201929092526040019020600101546001600160a01b031603611b915781611b8d81614c5e565b9250505b600101611b2f565b505f816001600160401b03811115611bb357611bb3614c76565b604051908082528060200260200182016040528015611bdc578160200160208202803683370190505b5090505f805b8554811015611c8157876001600160a01b031660015f888481548110611c0a57611c0a614ddd565b5f91825260208083209091015483528201929092526040019020546001600160a01b031603611c7957858181548110611c4557611c45614ddd565b905f5260205f200154838380611c5a90614c5e565b945081518110611c6c57611c6c614ddd565b6020026020010181815250505b600101611be2565b505f5b8454811015611d2657876001600160a01b031660015f878481548110611cac57611cac614ddd565b5f91825260208083209091015483528201929092526040019020600101546001600160a01b031603611d1e57848181548110611cea57611cea614ddd565b905f5260205f200154838380611cff90614c5e565b945081518110611d1157611d11614ddd565b6020026020010181815250505b600101611c84565b50909450505050505b92915050565b5f838152600a6020526040902060030154600160e81b900460ff16611d8e5760405162461bcd60e51b815260206004820152600f60248201526e11dc9bdd5c081b9bdd08199bdd5b99608a1b604482015260640161091b565b5f838152600a60205260409020600301546001600160a01b0316331480611dcd57505f838152600d6020908152604080832033845290915290205460ff165b611e055760405162461bcd60e51b81526020600482015260096024820152682737ba1030b236b4b760b91b604482015260640161091b565b5f5b81811015611f6a575f838383818110611e2257611e22614ddd565b9050602002016020810190611e3791906143b2565b5f868152600c602090815260408083206001600160a01b038516845290915290205490915060ff16158015611e8e57505f858152600e602090815260408083206001600160a01b038516845290915290205460ff16155b15611f61575f858152600b6020526040908190205410611edd5760405162461bcd60e51b815260206004820152600a60248201526911dc9bdd5c08199d5b1b60b21b604482015260640161091b565b5f858152600b602090815260408083208054600180820183559185528385200180546001600160a01b0319166001600160a01b038716908117909155898552600c8452828520818652909352818420805460ff1916909117905551339288917fafb3102cb7ef9cffb329d26fb61fb67129018f3939513b47f88d6b31fa1a51919190a45b50600101611e07565b50505050565b604080518082019091525f8152606060208201525f828152600360205260409081902081518083019092528054829060ff166001811115611fb357611fb361479b565b6001811115611fc457611fc461479b565b8152602001600182018054611fd890614c12565b80601f016020809104026020016040519081016040528092919081815260200182805461200490614c12565b801561204f5780601f106120265761010080835404028352916020019161204f565b820191905f5260205f20905b81548152906001019060200180831161203257829003601f168201915b5050505050815250509050919050565b604051806080016040528085858080601f0160208091040260200160405190810160405280939291908181526020018383808284375f92019190915250505090825250604080516020601f8601819004810282018101909252848152918101919085908590819084018382808284375f9201829052509385525050506001600160401b034216602080840191909152600160409384015233825260089052208151819061210c9082614cd6565b50602082015160018201906121219082614cd6565b50604082810151600290920180546060909401511515680100000000000000000268ffffffffffffffffff199094166001600160401b03909316929092179290921790555133907f0a511c8495ea62a7cd5d6ea146f10e09af99b649216ce0a3247ef8300f0eec669061219d9087908790879087904290614e44565b60405180910390a250505050565b5f828152600a6020526040902060030154600160e81b900460ff166122045760405162461bcd60e51b815260206004820152600f60248201526e11dc9bdd5c081b9bdd08199bdd5b99608a1b604482015260640161091b565b5f828152600a60205260409020600301546001600160a01b031633148061224357505f828152600d6020908152604080832033845290915290205460ff165b61227b5760405162461bcd60e51b81526020600482015260096024820152682737ba1030b236b4b760b91b604482015260640161091b565b5f828152600f6020526040908190208290555182907f845ac7ab06e95336f1555c923ce28f747a61103f8b5575b891842d387507b99d906122bf9084815260200190565b60405180910390a25050565b6122f96040805160a0810182525f808252602082018190529181018290526060810182905290608082015290565b5f82815260016020818152604092839020835160a08101855281546001600160a01b0390811682528285015490811693820193909352600160a01b83046001600160401b031694810194909452600160e01b820461ffff166060850152916080840191600160f01b900460ff16908111156123765761237661479b565b60018111156123875761238761479b565b90525092915050565b604080518082019091525f8152606060208201525f828152601360205260409081902081518083019092528054829060ff166001811115611fb357611fb361479b565b60136020525f90815260409020805460018201805460ff90921692916123f890614c12565b80601f016020809104026020016040519081016040528092919081815260200182805461242490614c12565b801561246f5780601f106124465761010080835404028352916020019161246f565b820191905f5260205f20905b81548152906001019060200180831161245257829003601f168201915b5050505050905082565b5f61248261415b565b905090565b600a6020525f9081526040902080546001820180549192916124a890614c12565b80601f01602080910402602001604051908101604052809291908181526020018280546124d490614c12565b801561251f5780601f106124f65761010080835404028352916020019161251f565b820191905f5260205f20905b81548152906001019060200180831161250257829003601f168201915b50505050509080600201805461253490614c12565b80601f016020809104026020016040519081016040528092919081815260200182805461256090614c12565b80156125ab5780601f10612582576101008083540402835291602001916125ab565b820191905f5260205f20905b81548152906001019060200180831161258e57829003601f168201915b505050600390930154919250506001600160a01b038116906001600160401b03600160a01b8204169060ff600160e01b8204811691600160e81b90041687565b5f858152600a6020526040902060030154600160e81b900460ff166126445760405162461bcd60e51b815260206004820152600f60248201526e11dc9bdd5c081b9bdd08199bdd5b99608a1b604482015260640161091b565b5f858152600c6020908152604080832033845290915290205460ff1661269b5760405162461bcd60e51b815260206004820152600c60248201526b2737ba10309036b2b6b132b960a11b604482015260640161091b565b826126d85760405162461bcd60e51b815260206004820152600d60248201526c456d707479206d65737361676560981b604482015260640161091b565b61010083111561271d5760405162461bcd60e51b815260206004820152601060248201526f4d65737361676520746f6f206c6f6e6760801b604482015260640161091b565b5f858152600b602052604090819020805490918111156127715760405162461bcd60e51b815260206004820152600f60248201526e47726f757020746f6f206c6172676560881b604482015260640161091b565b601080545f918261278183614c5e565b909155506040805160a0810182528a81523360208201526001600160401b0342169181019190915261ffff881660608201529091508690608081015f90525f8381526011602090815260409182902083518155908301516001808301805494860151606087015161ffff16600160e01b0261ffff60e01b196001600160401b03909216600160a01b026001600160e01b03199097166001600160a01b0390951694909417959095179485168317815560808601519394909260ff60f01b191662ffffff60e01b199091161790600160f01b9084908111156128645761286461479b565b02179055505f9150505b8161ffff168161ffff16101561294e575f6128da8a8a8461ffff1681811061289857612898614ddd565b9050602002013589898080601f0160208091040260200160405190810160405280939291908181526020018383808284375f9201919091525061402e92505050565b90506128e58161403b565b505f5b858110156129285761291f8288838154811061290657612906614ddd565b5f918252602090912001546001600160a01b031661404a565b506001016128e8565b505f84815260126020908152604080832061ffff8616845290915290205560010161286e565b505f89815260156020908152604080832080546001810182559084529183209091018490555133918b9185917f4ae9a61dbb355807329131e656b8b86b39ebaf7fa17312fc0466e1d324db6313916129aa914291889190614e86565b60405180910390a4505050505050505050565b60036020525f90815260409020805460018201805460ff90921692916123f890614c12565b6001600160a01b0381165f90815260066020908152604091829020805483518184028101840190945280845260609392830182828015611a9357602002820191905f5260205f20905b815481526020019060010190808311612a2b5750505050509050919050565b5f828152600a6020526040902060030154600160e81b900460ff16612aa35760405162461bcd60e51b815260206004820152600f60248201526e11dc9bdd5c081b9bdd08199bdd5b99608a1b604482015260640161091b565b5f828152600a60205260409020600301546001600160a01b0316331480612ae257505f828152600d6020908152604080832033845290915290205460ff165b612b1a5760405162461bcd60e51b81526020600482015260096024820152682737ba1030b236b4b760b91b604482015260640161091b565b5f828152600a60205260409020600301546001600160a01b0390811690821603612b865760405162461bcd60e51b815260206004820152601160248201527f43616e6e6f74206b69636b206f776e6572000000000000000000000000000000604482015260640161091b565b5f828152600c602090815260408083206001600160a01b038516845290915290205460ff16612be65760405162461bcd60e51b815260206004820152600c60248201526b2737ba10309036b2b6b132b960a11b604482015260640161091b565b5f828152600c602090815260408083206001600160a01b038516808552908352818420805460ff19908116909155868552600d845282852091855290835281842080549091169055848352600b9091529020612c429082614069565b60405133906001600160a01b0383169084907f4dac6e79e71e0258de8df54e033a218afa2c293ebcee65d7c966bc46353afb19905f90a45050565b612cab6040805160a0810182525f808252602082018190529181018290526060810182905290608082015290565b5f82815260116020908152604091829020825160a081018452815481526001808301546001600160a01b03811694830194909452600160a01b84046001600160401b031694820194909452600160e01b830461ffff1660608201529290916080840191600160f01b90910460ff16908111156123765761237661479b565b6040805160e0810182525f8082526060602083018190529282018390529181018290526080810182905260a0810182905260c0810191909152600a5f8381526020019081526020015f206040518060e00160405290815f8201548152602001600182018054612d9790614c12565b80601f0160208091040260200160405190810160405280929190818152602001828054612dc390614c12565b8015612e0e5780601f10612de557610100808354040283529160200191612e0e565b820191905f5260205f20905b815481529060010190602001808311612df157829003601f168201915b50505050508152602001600282018054612e2790614c12565b80601f0160208091040260200160405190810160405280929190818152602001828054612e5390614c12565b8015612e9e5780601f10612e7557610100808354040283529160200191612e9e565b820191905f5260205f20905b815481529060010190602001808311612e8157829003601f168201915b5050509183525050600391909101546001600160a01b03811660208301526001600160401b03600160a01b820416604083015260ff600160e01b8204811615156060840152600160e81b90910416151560809091015292915050565b5f828152601160209081526040808320815160a081018352815481526001808301546001600160a01b03811695830195909552600160a01b85046001600160401b031693820193909352600160e01b840461ffff166060820152849390926080840191600160f01b900460ff1690811115612f7757612f7761479b565b6001811115612f8857612f8861479b565b9052508051909150151580612fa9575060208101516001600160a01b031615155b612ff55760405162461bcd60e51b815260206004820152601660248201527f4d65737361676520646f6573206e6f7420657869737400000000000000000000604482015260640161091b565b806060015161ffff168361ffff16106130505760405162461bcd60e51b815260206004820152601360248201527f496e76616c6964206368756e6b20696e64657800000000000000000000000000604482015260640161091b565b50505f91825260126020908152604080842061ffff93909316845291905290205490565b6001600160a01b0383165f9081526005602052604090208054606091908085106130cd575f5b6040519080825280602002602001820160405280156130c3578160200160208202803683370190505b509250505061319b565b5f816130d98688614ec1565b116130ed576130e88587614ec1565b6130ef565b815b90505f6130fc8783614ed4565b6001600160401b0381111561311357613113614c76565b60405190808252806020026020018201604052801561313c578160200160208202803683370190505b509050865b828110156131945784818154811061315b5761315b614ddd565b905f5260205f2001548289836131719190614ed4565b8151811061318157613181614ddd565b6020908102919091010152600101613141565b5093505050505b9392505050565b6001600160a01b0385166131f85760405162461bcd60e51b815260206004820152601160248201527f496e76616c696420726563697069656e74000000000000000000000000000000604482015260640161091b565b336001600160a01b038616036132505760405162461bcd60e51b815260206004820152601760248201527f43616e6e6f742073656e6420746f20796f757273656c66000000000000000000604482015260640161091b565b8261328d5760405162461bcd60e51b815260206004820152600d60248201526c456d707479206d65737361676560981b604482015260640161091b565b6101008311156132d25760405162461bcd60e51b815260206004820152601060248201526f4d65737361676520746f6f206c6f6e6760801b604482015260640161091b565b6001600160a01b0385165f90815260076020908152604080832033845290915290205460ff16156133455760405162461bcd60e51b815260206004820152601c60248201527f596f752061726520626c6f636b656420627920726563697069656e7400000000604482015260640161091b565b335f9081526007602090815260408083206001600160a01b038916845290915290205460ff16156133b85760405162461bcd60e51b815260206004820152601a60248201527f596f7520626c6f636b6564207468697320726563697069656e74000000000000604482015260640161091b565b5f805481806133c683614c5e565b909155506040805160a0810182523381526001600160a01b03891660208201526001600160401b0342169181019190915261ffff861660608201529091508490608081015f90525f83815260016020818152604092839020845181546001600160a01b039182166001600160a01b031990911617825591850151818401805495870151606088015161ffff16600160e01b0261ffff60e01b196001600160401b03909216600160a01b026001600160e01b031990981693909516929092179590951790811683178555608086015191949193919260ff60f01b191662ffffff60e01b199091161790600160f01b9084908111156134c5576134c561479b565b02179055505f9150505b8161ffff168161ffff161015613540575f6134f988888461ffff1681811061137757611377614ddd565b90506135048161403b565b5061350f813361404a565b5061351a818a61404a565b505f84815260026020908152604080832061ffff861684529091529020556001016134cf565b506001600160a01b0387165f8181526005602090815260408083208054600181810183559185528385200187905533808552600684528285208054928301815585529284200186905551909185917fd64bcbd2b200a9c6606e97a610fdec02da43482ee57ac4c289dacb0cd63169bb916135bd9142918891614e86565b60405180910390a450505050505050565b6001600160a01b0383165f9081526006602052604090208054606091908085106135f8575f61309a565b5f816136048688614ec1565b11613618576136138587614ec1565b61361a565b815b90505f6136278783614ed4565b6001600160401b0381111561363e5761363e614c76565b604051908082528060200260200182016040528015613667578160200160208202803683370190505b509050865b828110156131945784818154811061368657613686614ddd565b905f5260205f20015482898361369c9190614ed4565b815181106136ac576136ac614ddd565b602090810291909101015260010161366c565b5f81815260156020908152604091829020805483518184028101840190945280845260609392830182828015611a9357602002820191905f5260205f2090815481526020019060010190808311612a2b5750505050509050919050565b6001600160a01b0381165f90815260056020908152604091829020805483518184028101840190945280845260609392830182828015611a9357602002820191905f5260205f2090815481526020019060010190808311612a2b5750505050509050919050565b5f828152600160208181526040808420815160a08101835281546001600160a01b0390811682528286015490811694820194909452600160a01b84046001600160401b031692810192909252600160e01b830461ffff1660608301528493919290916080840191600160f01b900460ff16908111156138045761380461479b565b60018111156138155761381561479b565b90525060208101519091506001600160a01b03166138755760405162461bcd60e51b815260206004820152601660248201527f4d65737361676520646f6573206e6f7420657869737400000000000000000000604482015260640161091b565b806060015161ffff168361ffff16106138d05760405162461bcd60e51b815260206004820152601360248201527f496e76616c6964206368756e6b20696e64657800000000000000000000000000604482015260640161091b565b50505f91825260026020908152604080842061ffff93909316845291905290205490565b5f838152600a6020526040902060030154600160e81b900460ff1661394d5760405162461bcd60e51b815260206004820152600f60248201526e11dc9bdd5c081b9bdd08199bdd5b99608a1b604482015260640161091b565b5f838152600a60205260409020600301546001600160a01b031633148061398c57505f838152600d6020908152604080832033845290915290205460ff165b6139c45760405162461bcd60e51b81526020600482015260096024820152682737ba1030b236b4b760b91b604482015260640161091b565b5f838152600a60205260409020600301546001600160a01b0390811690831603613a305760405162461bcd60e51b815260206004820152601060248201527f43616e6e6f742062616e206f776e657200000000000000000000000000000000604482015260640161091b565b5f838152600e602090815260408083206001600160a01b03861684529091529020805460ff191682158015919091179091558190613a8f57505f838152600c602090815260408083206001600160a01b038616845290915290205460ff165b15613af0575f838152600c602090815260408083206001600160a01b038616808552908352818420805460ff19908116909155878552600d845282852091855290835281842080549091169055858352600b9091529020613af09083614069565b816001600160a01b0316837ff1a22cd646c3a384b09cdfb6d78bf63a1c644a0b21f4e007005e21633c9a7ff083604051610a4a911515815260200190565b5f888152600a6020526040902060030154600160e81b900460ff16613b875760405162461bcd60e51b815260206004820152600f60248201526e11dc9bdd5c081b9bdd08199bdd5b99608a1b604482015260640161091b565b5f888152600c6020908152604080832033845290915290205460ff16613bde5760405162461bcd60e51b815260206004820152600c60248201526b2737ba10309036b2b6b132b960a11b604482015260640161091b565b85613c1b5760405162461bcd60e51b815260206004820152600d60248201526c456d707479206d65737361676560981b604482015260640161091b565b610100861115613c605760405162461bcd60e51b815260206004820152601060248201526f4d65737361676520746f6f206c6f6e6760801b604482015260640161091b565b82613cad5760405162461bcd60e51b815260206004820152601260248201527f496d616765204349442072657175697265640000000000000000000000000000604482015260640161091b565b5f888152600b60205260409081902080549091811115613d015760405162461bcd60e51b815260206004820152600f60248201526e47726f757020746f6f206c6172676560881b604482015260640161091b565b601080545f9182613d1183614c5e565b909155506040805160a0810182528d81523360208201526001600160401b0342169181019190915261ffff8b166060820152909150899060808101600190525f8381526011602090815260409182902083518155908301516001808301805494860151606087015161ffff16600160e01b0261ffff60e01b196001600160401b03909216600160a01b026001600160e01b03199097166001600160a01b0390951694909417959095179485168317815560808601519394909260ff60f01b191662ffffff60e01b199091161790600160f01b908490811115613df557613df561479b565b02179055505f9150505b8161ffff168161ffff161015613e84575f613e298d8d8461ffff1681811061289857612898614ddd565b9050613e348161403b565b505f5b85811015613e5e57613e558288838154811061290657612906614ddd565b50600101613e37565b505f84815260126020908152604080832061ffff86168452909152902055600101613dff565b505f613ec58a88888080601f0160208091040260200160405190810160405280939291908181526020018383808284375f9201919091525061405c92505050565b9050613ed08161403b565b505f5b84811015613efa57613ef18287838154811061290657612906614ddd565b50600101613ed3565b505f8381526014602052604090819020829055805180820190915280600181526020018a8a8080601f0160208091040260200160405190810160405280939291908181526020018383808284375f9201829052509390945250508581526013602052604090208251815491925090829060ff191660018381811115613f8157613f8161479b565b021790555060208201516001820190613f9a9082614cd6565b5090505060155f8e81526020019081526020015f2083908060018154018082558091505060019003905f5260205f20015f9091909190915055336001600160a01b03168d847f4ae9a61dbb355807329131e656b8b86b39ebaf7fa17312fc0466e1d324db6313428660018f8f604051614017959493929190614df1565b60405180910390a450505050505050505050505050565b5f61319b8383600561418f565b5f61404682306142af565b5090565b5f61405583836142af565b5090919050565b5f61319b8383600661418f565b81545f5b81811015611f6a57826001600160a01b031684828154811061409157614091614ddd565b5f918252602090912001546001600160a01b03160361415357836140b6600184614ed4565b815481106140c6576140c6614ddd565b905f5260205f20015f9054906101000a90046001600160a01b03168482815481106140f3576140f3614ddd565b905f5260205f20015f6101000a8154816001600160a01b0302191690836001600160a01b031602179055508380548061412e5761412e614ee7565b5f8281526020902081015f1990810180546001600160a01b0319169055019055611f6a565b60010161406d565b5f4660010361416a5750600190565b4662aa36a70361417b575061271190565b46617a690361418a57505f1990565b505f90565b7f9e7b61f58c47dc699ac88507c4f5bb9f121c03808c5676a8078fe583e46497015460405163045fc19560e11b81525f917f9e7b61f58c47dc699ac88507c4f5bb9f121c03808c5676a8078fe583e4649700916001600160a01b03909116906308bf832a90614208908890339089908990600401614efb565b6020604051808303815f875af1158015614224573d5f5f3e3d5ffd5b505050506040513d601f19601f820116820180604052508101906142489190614f43565b8154604051630f8e573b60e21b8152600481018390523360248201529193506001600160a01b031690633e395cec906044015f604051808303815f87803b158015614291575f5ffd5b505af11580156142a3573d5f5f3e3d5ffd5b50505050509392505050565b5f7f9e7b61f58c47dc699ac88507c4f5bb9f121c03808c5676a8078fe583e46497008054604051635ca4b5b160e11b8152600481018690526001600160a01b03858116602483015292935091169063b9496b62906044015f604051808303815f87803b15801561431d575f5ffd5b505af115801561432f573d5f5f3e3d5ffd5b50505050505050565b80356001600160a01b038116811461434e575f5ffd5b919050565b8035801515811461434e575f5ffd5b5f5f5f60608486031215614374575f5ffd5b8335925061438460208501614338565b915061439260408501614353565b90509250925092565b5f602082840312156143ab575f5ffd5b5035919050565b5f602082840312156143c2575f5ffd5b61319b82614338565b5f81518084528060208401602086015e5f602082860101526020601f19601f83011685010191505092915050565b602081525f82516080602084015261441460a08401826143cb565b90506020840151601f1984830301604085015261443182826143cb565b9150506001600160401b0360408501511660608401526060840151151560808401528091505092915050565b5f5f6040838503121561446e575f5ffd5b61447783614338565b915061448560208401614353565b90509250929050565b5f5f83601f84011261449e575f5ffd5b5081356001600160401b038111156144b4575f5ffd5b6020830191508360208285010111156144cb575f5ffd5b9250929050565b5f5f5f5f5f5f608087890312156144e7575f5ffd5b86356001600160401b038111156144fc575f5ffd5b61450889828a0161448e565b90975095505060208701356001600160401b03811115614526575f5ffd5b61453289828a0161448e565b9095509350614545905060408801614353565b95989497509295919493606090920135925050565b5f5f83601f84011261456a575f5ffd5b5081356001600160401b03811115614580575f5ffd5b6020830191508360208260051b85010111156144cb575f5ffd5b5f5f5f5f5f5f5f5f60a0898b0312156145b1575f5ffd5b6145ba89614338565b975060208901356001600160401b038111156145d4575f5ffd5b6145e08b828c0161455a565b9098509650506040890135945060608901356001600160401b03811115614605575f5ffd5b6146118b828c0161448e565b90955093505060808901356001600160401b0381111561462f575f5ffd5b61463b8b828c0161448e565b999c989b5096995094979396929594505050565b5f5f60408385031215614660575f5ffd5b8235915061448560208401614338565b5f5f5f60408486031215614682575f5ffd5b8335925060208401356001600160401b0381111561469e575f5ffd5b6146aa8682870161448e565b9497909650939450505050565b602080825282518282018190525f918401906040840190835b818110156146f75783516001600160a01b03168352602093840193909201916001016146d0565b509095945050505050565b5f5f60408385031215614713575f5ffd5b61471c83614338565b915061448560208401614338565b602080825282518282018190525f918401906040840190835b818110156146f7578351835260209384019390920191600101614743565b5f5f5f60408486031215614773575f5ffd5b8335925060208401356001600160401b0381111561478f575f5ffd5b6146aa8682870161455a565b634e487b7160e01b5f52602160045260245ffd5b600281106147bf576147bf61479b565b9052565b602081526147d56020820183516147af565b5f60208301516040808401526147ee60608401826143cb565b949350505050565b6001600160a01b038681168252851660208201526001600160401b038416604082015261ffff8316606082015260a0810161483460808301846147af565b9695505050505050565b5f5f5f5f60408587031215614851575f5ffd5b84356001600160401b03811115614866575f5ffd5b6148728782880161448e565b90955093505060208501356001600160401b03811115614890575f5ffd5b61489c8782880161448e565b95989497509550505050565b5f5f604083850312156148b9575f5ffd5b50508035926020909101359150565b5f60a0820190506001600160a01b0383511682526001600160a01b0360208401511660208301526001600160401b03604084015116604083015261ffff6060840151166060830152608083015161492260808401826147af565b5092915050565b61493381846147af565b604060208201525f6147ee60408301846143cb565b87815260e060208201525f61496060e08301896143cb565b828103604084015261497281896143cb565b6001600160a01b0397909716606084015250506001600160401b0393909316608084015290151560a0830152151560c0909101529392505050565b5f5f5f5f5f606086880312156149c1575f5ffd5b8535945060208601356001600160401b038111156149dd575f5ffd5b6149e98882890161455a565b90955093505060408601356001600160401b03811115614a07575f5ffd5b614a138882890161448e565b969995985093965092949392505050565b8581526001600160a01b03851660208201526001600160401b038416604082015261ffff8316606082015260a0810161483460808301846147af565b5f60a082019050825182526001600160a01b0360208401511660208301526001600160401b03604084015116604083015261ffff6060840151166060830152608083015161492260808401826147af565b60208152815160208201525f602083015160e06040840152614ad76101008401826143cb565b90506040840151601f19848303016060850152614af482826143cb565b9150506001600160a01b0360608501511660808401526001600160401b0360808501511660a084015260a0840151151560c084015260c0840151614b3c60e085018215159052565b509392505050565b5f5f60408385031215614b55575f5ffd5b82359150602083013561ffff81168114614b6d575f5ffd5b809150509250929050565b5f5f5f60608486031215614b8a575f5ffd5b614b9384614338565b95602085013595506040909401359392505050565b5f5f5f5f5f60608688031215614bbc575f5ffd5b614bc586614338565b945060208601356001600160401b038111156149dd575f5ffd5b5f5f5f5f5f5f5f5f60a0898b031215614bf6575f5ffd5b8835975060208901356001600160401b038111156145d4575f5ffd5b600181811c90821680614c2657607f821691505b602082108103614c4457634e487b7160e01b5f52602260045260245ffd5b50919050565b634e487b7160e01b5f52601160045260245ffd5b5f60018201614c6f57614c6f614c4a565b5060010190565b634e487b7160e01b5f52604160045260245ffd5b601f821115614cd157805f5260205f20601f840160051c81016020851015614caf5750805b601f840160051c820191505b81811015614cce575f8155600101614cbb565b50505b505050565b81516001600160401b03811115614cef57614cef614c76565b614d0381614cfd8454614c12565b84614c8a565b6020601f821160018114614d35575f8315614d1e5750848201515b5f19600385901b1c1916600184901b178455614cce565b5f84815260208120601f198516915b82811015614d645787850151825560209485019460019092019101614d44565b5084821015614d8157868401515f19600387901b60f8161c191681555b50505050600190811b01905550565b81835281816020850137505f828201602090810191909152601f909101601f19169091010190565b604081525f614dcb604083018587614d90565b90508215156020830152949350505050565b634e487b7160e01b5f52603260045260245ffd5b6001600160401b038616815261ffff85166020820152614e1460408201856147af565b608060608201525f614e2a608083018486614d90565b979650505050505050565b818382375f9101908152919050565b606081525f614e57606083018789614d90565b8281036020840152614e6a818688614d90565b9150506001600160401b03831660408301529695505050505050565b6001600160401b038416815261ffff83166020820152614ea960408201836147af565b6080606082018190525f9082015260a0019392505050565b80820180821115611d2f57611d2f614c4a565b81810381811115611d2f57611d2f614c4a565b634e487b7160e01b5f52603160045260245ffd5b8481526001600160a01b0384166020820152608060408201525f614f2260808301856143cb565b905060548310614f3457614f3461479b565b82606083015295945050505050565b5f60208284031215614f53575f5ffd5b505191905056fea164736f6c634300081b000a",
  "linkReferences": {},
  "deployedLinkReferences": {}
}